{
  "_format": "hh-sol-artifact-1",
  "contractName": "MinimalForwarder",
  "sourceName": "contracts/MinimalForwarder.sol",
  "abi": [
    {
      "inputs": [],
      "stateMutability": "nonpayable",
      "type": "constructor"
    },
    {
      "anonymous": false,
      "inputs": [
        {
          "indexed": true,
          "internalType": "address",
          "name": "previousOwner",
          "type": "address"
        },
        {
          "indexed": true,
          "internalType": "address",
          "name": "newOwner",
          "type": "address"
        }
      ],
      "name": "OwnershipTransferred",
      "type": "event"
    },
    {
      "inputs": [],
      "name": "_TYPEHASH",
      "outputs": [
        {
          "internalType": "bytes32",
          "name": "",
          "type": "bytes32"
        }
      ],
      "stateMutability": "view",
      "type": "function"
    },
    {
      "inputs": [
        {
          "components": [
            {
              "internalType": "address",
              "name": "from",
              "type": "address"
            },
            {
              "internalType": "address",
              "name": "to",
              "type": "address"
            },
            {
              "internalType": "uint256",
              "name": "value",
              "type": "uint256"
            },
            {
              "internalType": "uint256",
              "name": "gas",
              "type": "uint256"
            },
            {
              "internalType": "uint256",
              "name": "nonce",
              "type": "uint256"
            },
            {
              "internalType": "bytes",
              "name": "data",
              "type": "bytes"
            }
          ],
          "internalType": "struct MinimalForwarder.ForwardRequest",
          "name": "req",
          "type": "tuple"
        },
        {
          "internalType": "bytes",
          "name": "signature",
          "type": "bytes"
        }
      ],
      "name": "execute",
      "outputs": [
        {
          "internalType": "bool",
          "name": "",
          "type": "bool"
        },
        {
          "internalType": "bytes",
          "name": "",
          "type": "bytes"
        }
      ],
      "stateMutability": "payable",
      "type": "function"
    },
    {
      "inputs": [
        {
          "internalType": "address",
          "name": "from",
          "type": "address"
        }
      ],
      "name": "getNonce",
      "outputs": [
        {
          "internalType": "uint256",
          "name": "",
          "type": "uint256"
        }
      ],
      "stateMutability": "view",
      "type": "function"
    },
    {
      "inputs": [],
      "name": "owner",
      "outputs": [
        {
          "internalType": "address",
          "name": "",
          "type": "address"
        }
      ],
      "stateMutability": "view",
      "type": "function"
    },
    {
      "inputs": [],
      "name": "renounceOwnership",
      "outputs": [],
      "stateMutability": "nonpayable",
      "type": "function"
    },
    {
      "inputs": [
        {
          "internalType": "address",
          "name": "newOwner",
          "type": "address"
        }
      ],
      "name": "transferOwnership",
      "outputs": [],
      "stateMutability": "nonpayable",
      "type": "function"
    },
    {
      "inputs": [
        {
          "components": [
            {
              "internalType": "address",
              "name": "from",
              "type": "address"
            },
            {
              "internalType": "address",
              "name": "to",
              "type": "address"
            },
            {
              "internalType": "uint256",
              "name": "value",
              "type": "uint256"
            },
            {
              "internalType": "uint256",
              "name": "gas",
              "type": "uint256"
            },
            {
              "internalType": "uint256",
              "name": "nonce",
              "type": "uint256"
            },
            {
              "internalType": "bytes",
              "name": "data",
              "type": "bytes"
            }
          ],
          "internalType": "struct MinimalForwarder.ForwardRequest",
          "name": "req",
          "type": "tuple"
        },
        {
          "internalType": "bytes",
          "name": "signature",
          "type": "bytes"
        }
      ],
      "name": "verify",
      "outputs": [
        {
          "internalType": "bool",
          "name": "",
          "type": "bool"
        }
      ],
      "stateMutability": "view",
      "type": "function"
    },
    {
      "stateMutability": "payable",
      "type": "receive"
    }
  ],
  "bytecode": "0x6101406040523480156200001257600080fd5b506040518060400160405280601081526020017f4d696e696d616c466f72776172646572000000000000000000000000000000008152506040518060400160405280600581526020017f302e302e3100000000000000000000000000000000000000000000000000000081525060008280519060200120905060008280519060200120905060007f8b73c3c69bb8fe3d512ecc4cf759cc79239f7b179b0ffacaa9a75d522b39400f90508260e081815250508161010081815250504660a08181525050620000e88184846200015760201b60201c565b608081815250503073ffffffffffffffffffffffffffffffffffffffff1660c08173ffffffffffffffffffffffffffffffffffffffff1681525050806101208181525050505050505062000151620001456200019360201b60201c565b6200019b60201b60201c565b62000337565b6000838383463060405160200162000174959493929190620002da565b6040516020818303038152906040528051906020012090509392505050565b600033905090565b60008060009054906101000a900473ffffffffffffffffffffffffffffffffffffffff169050816000806101000a81548173ffffffffffffffffffffffffffffffffffffffff021916908373ffffffffffffffffffffffffffffffffffffffff1602179055508173ffffffffffffffffffffffffffffffffffffffff168173ffffffffffffffffffffffffffffffffffffffff167f8be0079c531659141344cd1fd0a4f28419497f9722a3daafe3b4186f6b6457e060405160405180910390a35050565b6000819050919050565b62000274816200025f565b82525050565b6000819050919050565b6200028f816200027a565b82525050565b600073ffffffffffffffffffffffffffffffffffffffff82169050919050565b6000620002c28262000295565b9050919050565b620002d481620002b5565b82525050565b600060a082019050620002f1600083018862000269565b62000300602083018762000269565b6200030f604083018662000269565b6200031e606083018562000284565b6200032d6080830184620002c9565b9695505050505050565b60805160a05160c05160e05161010051610120516114af620003756000396000505060005050600050506000505060005050600050506114af6000f3fe6080604052600436106100745760003560e01c8063715018a61161004e578063715018a6146101195780638da5cb5b14610130578063bf5d3bdb1461015b578063f2fde38b146101985761007b565b8063175c25a5146100805780632d0335ab146100ab57806347153f82146100e85761007b565b3661007b57005b600080fd5b34801561008c57600080fd5b506100956101c1565b6040516100a29190610a7a565b60405180910390f35b3480156100b757600080fd5b506100d260048036038101906100cd9190610afd565b6101e5565b6040516100df9190610b43565b60405180910390f35b61010260048036038101906100fd9190610be7565b61022e565b604051610110929190610d0e565b60405180910390f35b34801561012557600080fd5b5061012e6103e2565b005b34801561013c57600080fd5b506101456103f6565b6040516101529190610d4d565b60405180910390f35b34801561016757600080fd5b50610182600480360381019061017d9190610be7565b61041f565b60405161018f9190610d68565b60405180910390f35b3480156101a457600080fd5b506101bf60048036038101906101ba9190610afd565b6105a4565b005b7fdd8f4b70b0f4393e889bd39128a30628a78b61816a9eb8199759e7a349657e4881565b6000600160008373ffffffffffffffffffffffffffffffffffffffff1673ffffffffffffffffffffffffffffffffffffffff168152602001908152602001600020549050919050565b6000606061023a610627565b61024585858561041f565b610284576040517f08c379a000000000000000000000000000000000000000000000000000000000815260040161027b90610e06565b60405180910390fd5b600185608001356102959190610e55565b600160008760000160208101906102ac9190610afd565b73ffffffffffffffffffffffffffffffffffffffff1673ffffffffffffffffffffffffffffffffffffffff168152602001908152602001600020819055506000808660200160208101906103009190610afd565b73ffffffffffffffffffffffffffffffffffffffff1687606001358860400135898060a001906103309190610e98565b8b60000160208101906103439190610afd565b60405160200161035593929190610f82565b6040516020818303038152906040526040516103719190610fdd565b600060405180830381858888f193505050503d80600081146103af576040519150601f19603f3d011682016040523d82523d6000602084013e6103b4565b606091505b5091509150603f87606001356103ca9190611023565b5a116103d257fe5b8181935093505050935093915050565b6103ea610627565b6103f460006106a5565b565b60008060009054906101000a900473ffffffffffffffffffffffffffffffffffffffff16905090565b6000808460000160208101906104359190610afd565b8560200160208101906104489190610afd565b866040013587606001358860800135898060a001906104679190610e98565b60405160200161047d9796959493929190611075565b60405160208183030381529060405280519060200120905060006104f685858080601f016020809104026020016040519081016040528093929190818152602001838380828437600081840152601f19601f820116905080830192505050505050506104e884610769565b61079990919063ffffffff16565b90508560800135600160008860000160208101906105149190610afd565b73ffffffffffffffffffffffffffffffffffffffff1673ffffffffffffffffffffffffffffffffffffffff16815260200190815260200160002054148015610599575085600001602081019061056a9190610afd565b73ffffffffffffffffffffffffffffffffffffffff168173ffffffffffffffffffffffffffffffffffffffff16145b925050509392505050565b6105ac610627565b600073ffffffffffffffffffffffffffffffffffffffff168173ffffffffffffffffffffffffffffffffffffffff160361061b576040517f08c379a000000000000000000000000000000000000000000000000000000000815260040161061290611155565b60405180910390fd5b610624816106a5565b50565b61062f6107c0565b73ffffffffffffffffffffffffffffffffffffffff1661064d6103f6565b73ffffffffffffffffffffffffffffffffffffffff16146106a3576040517f08c379a000000000000000000000000000000000000000000000000000000000815260040161069a906111c1565b60405180910390fd5b565b60008060009054906101000a900473ffffffffffffffffffffffffffffffffffffffff169050816000806101000a81548173ffffffffffffffffffffffffffffffffffffffff021916908373ffffffffffffffffffffffffffffffffffffffff1602179055508173ffffffffffffffffffffffffffffffffffffffff168173ffffffffffffffffffffffffffffffffffffffff167f8be0079c531659141344cd1fd0a4f28419497f9722a3daafe3b4186f6b6457e060405160405180910390a35050565b60008160405160200161077c9190611259565b604051602081830303815290604052805190602001209050919050565b60008060006107a885856107c8565b915091506107b581610819565b819250505092915050565b600033905090565b60008060418351036108095760008060006020860151925060408601519150606086015160001a90506107fd8782858561097f565b94509450505050610812565b60006002915091505b9250929050565b6000600481111561082d5761082c61127f565b5b8160048111156108405761083f61127f565b5b031561097c576001600481111561085a5761085961127f565b5b81600481111561086d5761086c61127f565b5b036108ad576040517f08c379a00000000000000000000000000000000000000000000000000000000081526004016108a4906112fa565b60405180910390fd5b600260048111156108c1576108c061127f565b5b8160048111156108d4576108d361127f565b5b03610914576040517f08c379a000000000000000000000000000000000000000000000000000000000815260040161090b90611366565b60405180910390fd5b600360048111156109285761092761127f565b5b81600481111561093b5761093a61127f565b5b0361097b576040517f08c379a0000000000000000000000000000000000000000000000000000000008152600401610972906113f8565b60405180910390fd5b5b50565b6000807f7fffffffffffffffffffffffffffffff5d576e7357a4501ddfe92f46681b20a08360001c11156109ba576000600391509150610a58565b6000600187878787604051600081526020016040526040516109df9493929190611434565b6020604051602081039080840390855afa158015610a01573d6000803e3d6000fd5b505050602060405103519050600073ffffffffffffffffffffffffffffffffffffffff168173ffffffffffffffffffffffffffffffffffffffff1603610a4f57600060019250925050610a58565b80600092509250505b94509492505050565b6000819050919050565b610a7481610a61565b82525050565b6000602082019050610a8f6000830184610a6b565b92915050565b600080fd5b600080fd5b600073ffffffffffffffffffffffffffffffffffffffff82169050919050565b6000610aca82610a9f565b9050919050565b610ada81610abf565b8114610ae557600080fd5b50565b600081359050610af781610ad1565b92915050565b600060208284031215610b1357610b12610a95565b5b6000610b2184828501610ae8565b91505092915050565b6000819050919050565b610b3d81610b2a565b82525050565b6000602082019050610b586000830184610b34565b92915050565b600080fd5b600060c08284031215610b7957610b78610b5e565b5b81905092915050565b600080fd5b600080fd5b600080fd5b60008083601f840112610ba757610ba6610b82565b5b8235905067ffffffffffffffff811115610bc457610bc3610b87565b5b602083019150836001820283011115610be057610bdf610b8c565b5b9250929050565b600080600060408486031215610c0057610bff610a95565b5b600084013567ffffffffffffffff811115610c1e57610c1d610a9a565b5b610c2a86828701610b63565b935050602084013567ffffffffffffffff811115610c4b57610c4a610a9a565b5b610c5786828701610b91565b92509250509250925092565b60008115159050919050565b610c7881610c63565b82525050565b600081519050919050565b600082825260208201905092915050565b60005b83811015610cb8578082015181840152602081019050610c9d565b60008484015250505050565b6000601f19601f8301169050919050565b6000610ce082610c7e565b610cea8185610c89565b9350610cfa818560208601610c9a565b610d0381610cc4565b840191505092915050565b6000604082019050610d236000830185610c6f565b8181036020830152610d358184610cd5565b90509392505050565b610d4781610abf565b82525050565b6000602082019050610d626000830184610d3e565b92915050565b6000602082019050610d7d6000830184610c6f565b92915050565b600082825260208201905092915050565b7f4d696e696d616c466f727761726465723a207369676e617475726520646f657360008201527f206e6f74206d6174636820726571756573740000000000000000000000000000602082015250565b6000610df0603283610d83565b9150610dfb82610d94565b604082019050919050565b60006020820190508181036000830152610e1f81610de3565b9050919050565b7f4e487b7100000000000000000000000000000000000000000000000000000000600052601160045260246000fd5b6000610e6082610b2a565b9150610e6b83610b2a565b9250828201905080821115610e8357610e82610e26565b5b92915050565b600080fd5b600080fd5b600080fd5b60008083356001602003843603038112610eb557610eb4610e89565b5b80840192508235915067ffffffffffffffff821115610ed757610ed6610e8e565b5b602083019250600182023603831315610ef357610ef2610e93565b5b509250929050565b600081905092915050565b82818337600083830152505050565b6000610f218385610efb565b9350610f2e838584610f06565b82840190509392505050565b60008160601b9050919050565b6000610f5282610f3a565b9050919050565b6000610f6482610f47565b9050919050565b610f7c610f7782610abf565b610f59565b82525050565b6000610f8f828587610f15565b9150610f9b8284610f6b565b601482019150819050949350505050565b6000610fb782610c7e565b610fc18185610efb565b9350610fd1818560208601610c9a565b80840191505092915050565b6000610fe98284610fac565b915081905092915050565b7f4e487b7100000000000000000000000000000000000000000000000000000000600052601260045260246000fd5b600061102e82610b2a565b915061103983610b2a565b92508261104957611048610ff4565b5b828204905092915050565b6000819050919050565b61106f61106a82610b2a565b611054565b82525050565b6000611081828a610f6b565b6014820191506110918289610f6b565b6014820191506110a1828861105e565b6020820191506110b1828761105e565b6020820191506110c1828661105e565b6020820191506110d2828486610f15565b915081905098975050505050505050565b7f4f776e61626c653a206e6577206f776e657220697320746865207a65726f206160008201527f6464726573730000000000000000000000000000000000000000000000000000602082015250565b600061113f602683610d83565b915061114a826110e3565b604082019050919050565b6000602082019050818103600083015261116e81611132565b9050919050565b7f4f776e61626c653a2063616c6c6572206973206e6f7420746865206f776e6572600082015250565b60006111ab602083610d83565b91506111b682611175565b602082019050919050565b600060208201905081810360008301526111da8161119e565b9050919050565b600081905092915050565b7f19457468657265756d205369676e6564204d6573736167653a0a333200000000600082015250565b6000611222601c836111e1565b915061122d826111ec565b601c82019050919050565b6000819050919050565b61125361124e82610a61565b611238565b82525050565b600061126482611215565b91506112708284611242565b60208201915081905092915050565b7f4e487b7100000000000000000000000000000000000000000000000000000000600052602160045260246000fd5b7f45434453413a20696e76616c6964207369676e61747572650000000000000000600082015250565b60006112e4601883610d83565b91506112ef826112ae565b602082019050919050565b60006020820190508181036000830152611313816112d7565b9050919050565b7f45434453413a20696e76616c6964207369676e6174757265206c656e67746800600082015250565b6000611350601f83610d83565b915061135b8261131a565b602082019050919050565b6000602082019050818103600083015261137f81611343565b9050919050565b7f45434453413a20696e76616c6964207369676e6174757265202773272076616c60008201527f7565000000000000000000000000000000000000000000000000000000000000602082015250565b60006113e2602283610d83565b91506113ed82611386565b604082019050919050565b60006020820190508181036000830152611411816113d5565b9050919050565b600060ff82169050919050565b61142e81611418565b82525050565b60006080820190506114496000830187610a6b565b6114566020830186611425565b6114636040830185610a6b565b6114706060830184610a6b565b9594505050505056fea2646970667358221220ddfebc88fadfc2ed38f01cb8b3ab8d5eaf8fb9e6fa5a92b5cebbda79e15b81b364736f6c63430008110033",
  "linkReferences": {},
  "deployedLinkReferences": {}
}