{
  "_format": "hh-sol-artifact-1",
  "contractName": "GaslessNFT",
  "sourceName": "contracts/RecipientExample.sol",
  "abi": [
    {
      "inputs": [
        {
          "internalType": "address",
          "name": "trustedForwarder",
          "type": "address"
        }
      ],
      "stateMutability": "nonpayable",
      "type": "constructor"
    },
    {
      "inputs": [],
      "name": "ApprovalCallerNotOwnerNorApproved",
      "type": "error"
    },
    {
      "inputs": [],
      "name": "ApprovalQueryForNonexistentToken",
      "type": "error"
    },
    {
      "inputs": [],
      "name": "BalanceQueryForZeroAddress",
      "type": "error"
    },
    {
      "inputs": [],
      "name": "MintERC2309QuantityExceedsLimit",
      "type": "error"
    },
    {
      "inputs": [],
      "name": "MintToZeroAddress",
      "type": "error"
    },
    {
      "inputs": [],
      "name": "MintZeroQuantity",
      "type": "error"
    },
    {
      "inputs": [],
      "name": "OwnerQueryForNonexistentToken",
      "type": "error"
    },
    {
      "inputs": [],
      "name": "OwnershipNotInitializedForExtraData",
      "type": "error"
    },
    {
      "inputs": [],
      "name": "TransferCallerNotOwnerNorApproved",
      "type": "error"
    },
    {
      "inputs": [],
      "name": "TransferFromIncorrectOwner",
      "type": "error"
    },
    {
      "inputs": [],
      "name": "TransferToNonERC721ReceiverImplementer",
      "type": "error"
    },
    {
      "inputs": [],
      "name": "TransferToZeroAddress",
      "type": "error"
    },
    {
      "inputs": [],
      "name": "URIQueryForNonexistentToken",
      "type": "error"
    },
    {
      "anonymous": false,
      "inputs": [
        {
          "indexed": true,
          "internalType": "address",
          "name": "owner",
          "type": "address"
        },
        {
          "indexed": true,
          "internalType": "address",
          "name": "approved",
          "type": "address"
        },
        {
          "indexed": true,
          "internalType": "uint256",
          "name": "tokenId",
          "type": "uint256"
        }
      ],
      "name": "Approval",
      "type": "event"
    },
    {
      "anonymous": false,
      "inputs": [
        {
          "indexed": true,
          "internalType": "address",
          "name": "owner",
          "type": "address"
        },
        {
          "indexed": true,
          "internalType": "address",
          "name": "operator",
          "type": "address"
        },
        {
          "indexed": false,
          "internalType": "bool",
          "name": "approved",
          "type": "bool"
        }
      ],
      "name": "ApprovalForAll",
      "type": "event"
    },
    {
      "anonymous": false,
      "inputs": [
        {
          "indexed": true,
          "internalType": "uint256",
          "name": "fromTokenId",
          "type": "uint256"
        },
        {
          "indexed": false,
          "internalType": "uint256",
          "name": "toTokenId",
          "type": "uint256"
        },
        {
          "indexed": true,
          "internalType": "address",
          "name": "from",
          "type": "address"
        },
        {
          "indexed": true,
          "internalType": "address",
          "name": "to",
          "type": "address"
        }
      ],
      "name": "ConsecutiveTransfer",
      "type": "event"
    },
    {
      "anonymous": false,
      "inputs": [
        {
          "indexed": true,
          "internalType": "address",
          "name": "previousOwner",
          "type": "address"
        },
        {
          "indexed": true,
          "internalType": "address",
          "name": "newOwner",
          "type": "address"
        }
      ],
      "name": "OwnershipTransferred",
      "type": "event"
    },
    {
      "anonymous": false,
      "inputs": [
        {
          "indexed": true,
          "internalType": "address",
          "name": "from",
          "type": "address"
        },
        {
          "indexed": true,
          "internalType": "address",
          "name": "to",
          "type": "address"
        },
        {
          "indexed": true,
          "internalType": "uint256",
          "name": "tokenId",
          "type": "uint256"
        }
      ],
      "name": "Transfer",
      "type": "event"
    },
    {
      "anonymous": false,
      "inputs": [
        {
          "indexed": false,
          "internalType": "address",
          "name": "minter",
          "type": "address"
        },
        {
          "indexed": false,
          "internalType": "uint256",
          "name": "amount",
          "type": "uint256"
        }
      ],
      "name": "minted",
      "type": "event"
    },
    {
      "inputs": [],
      "name": "URI",
      "outputs": [
        {
          "internalType": "string",
          "name": "",
          "type": "string"
        }
      ],
      "stateMutability": "view",
      "type": "function"
    },
    {
      "inputs": [
        {
          "internalType": "address",
          "name": "to",
          "type": "address"
        },
        {
          "internalType": "uint256",
          "name": "tokenId",
          "type": "uint256"
        }
      ],
      "name": "approve",
      "outputs": [],
      "stateMutability": "payable",
      "type": "function"
    },
    {
      "inputs": [
        {
          "internalType": "address",
          "name": "owner",
          "type": "address"
        }
      ],
      "name": "balanceOf",
      "outputs": [
        {
          "internalType": "uint256",
          "name": "",
          "type": "uint256"
        }
      ],
      "stateMutability": "view",
      "type": "function"
    },
    {
      "inputs": [
        {
          "internalType": "uint256",
          "name": "tokenId",
          "type": "uint256"
        }
      ],
      "name": "getApproved",
      "outputs": [
        {
          "internalType": "address",
          "name": "",
          "type": "address"
        }
      ],
      "stateMutability": "view",
      "type": "function"
    },
    {
      "inputs": [
        {
          "internalType": "address",
          "name": "owner",
          "type": "address"
        },
        {
          "internalType": "address",
          "name": "operator",
          "type": "address"
        }
      ],
      "name": "isApprovedForAll",
      "outputs": [
        {
          "internalType": "bool",
          "name": "",
          "type": "bool"
        }
      ],
      "stateMutability": "view",
      "type": "function"
    },
    {
      "inputs": [
        {
          "internalType": "address",
          "name": "forwarder",
          "type": "address"
        }
      ],
      "name": "isTrustedForwarder",
      "outputs": [
        {
          "internalType": "bool",
          "name": "",
          "type": "bool"
        }
      ],
      "stateMutability": "view",
      "type": "function"
    },
    {
      "inputs": [
        {
          "internalType": "uint256",
          "name": "amount",
          "type": "uint256"
        }
      ],
      "name": "mint",
      "outputs": [],
      "stateMutability": "nonpayable",
      "type": "function"
    },
    {
      "inputs": [],
      "name": "name",
      "outputs": [
        {
          "internalType": "string",
          "name": "",
          "type": "string"
        }
      ],
      "stateMutability": "view",
      "type": "function"
    },
    {
      "inputs": [],
      "name": "owner",
      "outputs": [
        {
          "internalType": "address",
          "name": "",
          "type": "address"
        }
      ],
      "stateMutability": "view",
      "type": "function"
    },
    {
      "inputs": [
        {
          "internalType": "uint256",
          "name": "tokenId",
          "type": "uint256"
        }
      ],
      "name": "ownerOf",
      "outputs": [
        {
          "internalType": "address",
          "name": "",
          "type": "address"
        }
      ],
      "stateMutability": "view",
      "type": "function"
    },
    {
      "inputs": [],
      "name": "renounceOwnership",
      "outputs": [],
      "stateMutability": "nonpayable",
      "type": "function"
    },
    {
      "inputs": [
        {
          "internalType": "address",
          "name": "from",
          "type": "address"
        },
        {
          "internalType": "address",
          "name": "to",
          "type": "address"
        },
        {
          "internalType": "uint256",
          "name": "tokenId",
          "type": "uint256"
        }
      ],
      "name": "safeTransferFrom",
      "outputs": [],
      "stateMutability": "payable",
      "type": "function"
    },
    {
      "inputs": [
        {
          "internalType": "address",
          "name": "from",
          "type": "address"
        },
        {
          "internalType": "address",
          "name": "to",
          "type": "address"
        },
        {
          "internalType": "uint256",
          "name": "tokenId",
          "type": "uint256"
        },
        {
          "internalType": "bytes",
          "name": "_data",
          "type": "bytes"
        }
      ],
      "name": "safeTransferFrom",
      "outputs": [],
      "stateMutability": "payable",
      "type": "function"
    },
    {
      "inputs": [
        {
          "internalType": "address",
          "name": "operator",
          "type": "address"
        },
        {
          "internalType": "bool",
          "name": "approved",
          "type": "bool"
        }
      ],
      "name": "setApprovalForAll",
      "outputs": [],
      "stateMutability": "nonpayable",
      "type": "function"
    },
    {
      "inputs": [
        {
          "internalType": "bytes4",
          "name": "interfaceId",
          "type": "bytes4"
        }
      ],
      "name": "supportsInterface",
      "outputs": [
        {
          "internalType": "bool",
          "name": "",
          "type": "bool"
        }
      ],
      "stateMutability": "view",
      "type": "function"
    },
    {
      "inputs": [],
      "name": "symbol",
      "outputs": [
        {
          "internalType": "string",
          "name": "",
          "type": "string"
        }
      ],
      "stateMutability": "view",
      "type": "function"
    },
    {
      "inputs": [
        {
          "internalType": "uint256",
          "name": "tokenId",
          "type": "uint256"
        }
      ],
      "name": "tokenURI",
      "outputs": [
        {
          "internalType": "string",
          "name": "",
          "type": "string"
        }
      ],
      "stateMutability": "view",
      "type": "function"
    },
    {
      "inputs": [],
      "name": "totalSupply",
      "outputs": [
        {
          "internalType": "uint256",
          "name": "",
          "type": "uint256"
        }
      ],
      "stateMutability": "view",
      "type": "function"
    },
    {
      "inputs": [
        {
          "internalType": "address",
          "name": "from",
          "type": "address"
        },
        {
          "internalType": "address",
          "name": "to",
          "type": "address"
        },
        {
          "internalType": "uint256",
          "name": "tokenId",
          "type": "uint256"
        }
      ],
      "name": "transferFrom",
      "outputs": [],
      "stateMutability": "payable",
      "type": "function"
    },
    {
      "inputs": [
        {
          "internalType": "address",
          "name": "newOwner",
          "type": "address"
        }
      ],
      "name": "transferOwnership",
      "outputs": [],
      "stateMutability": "nonpayable",
      "type": "function"
    }
  ],
  "bytecode": "0x60a06040523480156200001157600080fd5b50604051620028b7380380620028b7833981810160405281019062000037919062000275565b6040518060400160405280600b81526020017f4761736c657373204e46540000000000000000000000000000000000000000008152506040518060400160405280600481526020017f474e465400000000000000000000000000000000000000000000000000000000815250620000c3620000b76200013a60201b60201c565b6200014260201b60201c565b8160039081620000d4919062000521565b508060049081620000e6919062000521565b50620000f76200020660201b60201c565b60018190555050508073ffffffffffffffffffffffffffffffffffffffff1660808173ffffffffffffffffffffffffffffffffffffffff16815250505062000608565b600033905090565b60008060009054906101000a900473ffffffffffffffffffffffffffffffffffffffff169050816000806101000a81548173ffffffffffffffffffffffffffffffffffffffff021916908373ffffffffffffffffffffffffffffffffffffffff1602179055508173ffffffffffffffffffffffffffffffffffffffff168173ffffffffffffffffffffffffffffffffffffffff167f8be0079c531659141344cd1fd0a4f28419497f9722a3daafe3b4186f6b6457e060405160405180910390a35050565b600090565b600080fd5b600073ffffffffffffffffffffffffffffffffffffffff82169050919050565b60006200023d8262000210565b9050919050565b6200024f8162000230565b81146200025b57600080fd5b50565b6000815190506200026f8162000244565b92915050565b6000602082840312156200028e576200028d6200020b565b5b60006200029e848285016200025e565b91505092915050565b600081519050919050565b7f4e487b7100000000000000000000000000000000000000000000000000000000600052604160045260246000fd5b7f4e487b7100000000000000000000000000000000000000000000000000000000600052602260045260246000fd5b600060028204905060018216806200032957607f821691505b6020821081036200033f576200033e620002e1565b5b50919050565b60008190508160005260206000209050919050565b60006020601f8301049050919050565b600082821b905092915050565b600060088302620003a97fffffffffffffffffffffffffffffffffffffffffffffffffffffffffffffffff826200036a565b620003b586836200036a565b95508019841693508086168417925050509392505050565b6000819050919050565b6000819050919050565b600062000402620003fc620003f684620003cd565b620003d7565b620003cd565b9050919050565b6000819050919050565b6200041e83620003e1565b620004366200042d8262000409565b84845462000377565b825550505050565b600090565b6200044d6200043e565b6200045a81848462000413565b505050565b5b8181101562000482576200047660008262000443565b60018101905062000460565b5050565b601f821115620004d1576200049b8162000345565b620004a6846200035a565b81016020851015620004b6578190505b620004ce620004c5856200035a565b8301826200045f565b50505b505050565b600082821c905092915050565b6000620004f660001984600802620004d6565b1980831691505092915050565b6000620005118383620004e3565b9150826002028217905092915050565b6200052c82620002a7565b67ffffffffffffffff811115620005485762000547620002b2565b5b62000554825462000310565b6200056182828562000486565b600060209050601f83116001811462000599576000841562000584578287015190505b62000590858262000503565b86555062000600565b601f198416620005a98662000345565b60005b82811015620005d357848901518255600182019150602085019450602081019050620005ac565b86831015620005f35784890151620005ef601f891682620004e3565b8355505b6001600288020188555050505b505050505050565b608051612293620006246000396000610b7a01526122936000f3fe60806040526004361061011f5760003560e01c806370a08231116100a0578063a22cb46511610064578063a22cb465146103c0578063b88d4fde146103e9578063c87b56dd14610405578063e985e9c514610442578063f2fde38b1461047f5761011f565b806370a08231146102ed578063715018a61461032a5780638da5cb5b1461034157806395d89b411461036c578063a0712d68146103975761011f565b806318160ddd116100e757806318160ddd1461021057806323b872dd1461023b57806342842e0e14610257578063572b6c05146102735780636352211e146102b05761011f565b806301ffc9a71461012457806306fdde0314610161578063081812fc1461018c578063095ea7b3146101c95780631141d7de146101e5575b600080fd5b34801561013057600080fd5b5061014b600480360381019061014691906119d9565b6104a8565b6040516101589190611a21565b60405180910390f35b34801561016d57600080fd5b5061017661053a565b6040516101839190611acc565b60405180910390f35b34801561019857600080fd5b506101b360048036038101906101ae9190611b24565b6105cc565b6040516101c09190611b92565b60405180910390f35b6101e360048036038101906101de9190611bd9565b61064b565b005b3480156101f157600080fd5b506101fa61078f565b6040516102079190611acc565b60405180910390f35b34801561021c57600080fd5b5061022561081d565b6040516102329190611c28565b60405180910390f35b61025560048036038101906102509190611c43565b610834565b005b610271600480360381019061026c9190611c43565b610b56565b005b34801561027f57600080fd5b5061029a60048036038101906102959190611c96565b610b76565b6040516102a79190611a21565b60405180910390f35b3480156102bc57600080fd5b506102d760048036038101906102d29190611b24565b610bce565b6040516102e49190611b92565b60405180910390f35b3480156102f957600080fd5b50610314600480360381019061030f9190611c96565b610be0565b6040516103219190611c28565b60405180910390f35b34801561033657600080fd5b5061033f610c98565b005b34801561034d57600080fd5b50610356610cac565b6040516103639190611b92565b60405180910390f35b34801561037857600080fd5b50610381610cd5565b60405161038e9190611acc565b60405180910390f35b3480156103a357600080fd5b506103be60048036038101906103b99190611b24565b610d67565b005b3480156103cc57600080fd5b506103e760048036038101906103e29190611cef565b610dba565b005b61040360048036038101906103fe9190611e64565b610ec5565b005b34801561041157600080fd5b5061042c60048036038101906104279190611b24565b610f38565b6040516104399190611acc565b60405180910390f35b34801561044e57600080fd5b5061046960048036038101906104649190611ee7565b610fd6565b6040516104769190611a21565b60405180910390f35b34801561048b57600080fd5b506104a660048036038101906104a19190611c96565b61106a565b005b60006301ffc9a760e01b827bffffffffffffffffffffffffffffffffffffffffffffffffffffffff1916148061050357506380ac58cd60e01b827bffffffffffffffffffffffffffffffffffffffffffffffffffffffff1916145b806105335750635b5e139f60e01b827bffffffffffffffffffffffffffffffffffffffffffffffffffffffff1916145b9050919050565b60606003805461054990611f56565b80601f016020809104026020016040519081016040528092919081815260200182805461057590611f56565b80156105c25780601f10610597576101008083540402835291602001916105c2565b820191906000526020600020905b8154815290600101906020018083116105a557829003601f168201915b5050505050905090565b60006105d7826110ed565b61060d576040517fcf4700e400000000000000000000000000000000000000000000000000000000815260040160405180910390fd5b6007600083815260200190815260200160002060000160009054906101000a900473ffffffffffffffffffffffffffffffffffffffff169050919050565b600061065682610bce565b90508073ffffffffffffffffffffffffffffffffffffffff1661067761114c565b73ffffffffffffffffffffffffffffffffffffffff16146106da576106a38161069e61114c565b610fd6565b6106d9576040517fcfb3b94200000000000000000000000000000000000000000000000000000000815260040160405180910390fd5b5b826007600084815260200190815260200160002060000160006101000a81548173ffffffffffffffffffffffffffffffffffffffff021916908373ffffffffffffffffffffffffffffffffffffffff160217905550818373ffffffffffffffffffffffffffffffffffffffff168273ffffffffffffffffffffffffffffffffffffffff167f8c5be1e5ebec7d5bd14f71427d1e84f3dd0314c0f7b2291e5b200ac8c7c3b92560405160405180910390a4505050565b6009805461079c90611f56565b80601f01602080910402602001604051908101604052809291908181526020018280546107c890611f56565b80156108155780601f106107ea57610100808354040283529160200191610815565b820191906000526020600020905b8154815290600101906020018083116107f857829003601f168201915b505050505081565b6000610827611154565b6002546001540303905090565b600061083f82611159565b90508373ffffffffffffffffffffffffffffffffffffffff168173ffffffffffffffffffffffffffffffffffffffff16146108a6576040517fa114810000000000000000000000000000000000000000000000000000000000815260040160405180910390fd5b6000806108b284611225565b915091506108c881876108c361114c565b61124c565b610914576108dd866108d861114c565b610fd6565b610913576040517f59c896be00000000000000000000000000000000000000000000000000000000815260040160405180910390fd5b5b600073ffffffffffffffffffffffffffffffffffffffff168573ffffffffffffffffffffffffffffffffffffffff160361097a576040517fea553b3400000000000000000000000000000000000000000000000000000000815260040160405180910390fd5b6109878686866001611290565b801561099257600082555b600660008773ffffffffffffffffffffffffffffffffffffffff1673ffffffffffffffffffffffffffffffffffffffff168152602001908152602001600020600081546001900391905081905550600660008673ffffffffffffffffffffffffffffffffffffffff1673ffffffffffffffffffffffffffffffffffffffff1681526020019081526020016000206000815460010191905081905550610a6085610a3c888887611296565b7c0200000000000000000000000000000000000000000000000000000000176112be565b600560008681526020019081526020016000208190555060007c0200000000000000000000000000000000000000000000000000000000841603610ae65760006001850190506000600560008381526020019081526020016000205403610ae4576001548114610ae3578360056000838152602001908152602001600020819055505b5b505b838573ffffffffffffffffffffffffffffffffffffffff168773ffffffffffffffffffffffffffffffffffffffff167fddf252ad1be2c89b69c2b068fc378daa952ba7f163c4a11628f55a4df523b3ef60405160405180910390a4610b4e86868660016112e9565b505050505050565b610b7183838360405180602001604052806000815250610ec5565b505050565b60007f000000000000000000000000000000000000000000000000000000000000000073ffffffffffffffffffffffffffffffffffffffff168273ffffffffffffffffffffffffffffffffffffffff16149050919050565b6000610bd982611159565b9050919050565b60008073ffffffffffffffffffffffffffffffffffffffff168273ffffffffffffffffffffffffffffffffffffffff1603610c47576040517f8f4eb60400000000000000000000000000000000000000000000000000000000815260040160405180910390fd5b67ffffffffffffffff600660008473ffffffffffffffffffffffffffffffffffffffff1673ffffffffffffffffffffffffffffffffffffffff16815260200190815260200160002054169050919050565b610ca06112ef565b610caa600061136d565b565b60008060009054906101000a900473ffffffffffffffffffffffffffffffffffffffff16905090565b606060048054610ce490611f56565b80601f0160208091040260200160405190810160405280929190818152602001828054610d1090611f56565b8015610d5d5780601f10610d3257610100808354040283529160200191610d5d565b820191906000526020600020905b815481529060010190602001808311610d4057829003601f168201915b5050505050905090565b6000610d71611431565b9050610d7d81836114a2565b7fb7656808f0e04b4af7a20f7ef1caa7669f0d781f1ca4cba31a3ba467880766c98183604051610dae929190611f87565b60405180910390a15050565b8060086000610dc761114c565b73ffffffffffffffffffffffffffffffffffffffff1673ffffffffffffffffffffffffffffffffffffffff16815260200190815260200160002060008473ffffffffffffffffffffffffffffffffffffffff1673ffffffffffffffffffffffffffffffffffffffff16815260200190815260200160002060006101000a81548160ff0219169083151502179055508173ffffffffffffffffffffffffffffffffffffffff16610e7461114c565b73ffffffffffffffffffffffffffffffffffffffff167f17307eab39ab6107e8899845ad3d59bd9653f200f220920489ca2b5937696c3183604051610eb99190611a21565b60405180910390a35050565b610ed0848484610834565b60008373ffffffffffffffffffffffffffffffffffffffff163b14610f3257610efb848484846114c0565b610f31576040517fd1a57ed600000000000000000000000000000000000000000000000000000000815260040160405180910390fd5b5b50505050565b6060610f43826110ed565b610f79576040517fa14c4b5000000000000000000000000000000000000000000000000000000000815260040160405180910390fd5b6000610f83611610565b90506000815103610fa35760405180602001604052806000815250610fce565b80610fad846116a2565b604051602001610fbe929190611fec565b6040516020818303038152906040525b915050919050565b6000600860008473ffffffffffffffffffffffffffffffffffffffff1673ffffffffffffffffffffffffffffffffffffffff16815260200190815260200160002060008373ffffffffffffffffffffffffffffffffffffffff1673ffffffffffffffffffffffffffffffffffffffff16815260200190815260200160002060009054906101000a900460ff16905092915050565b6110726112ef565b600073ffffffffffffffffffffffffffffffffffffffff168173ffffffffffffffffffffffffffffffffffffffff16036110e1576040517f08c379a00000000000000000000000000000000000000000000000000000000081526004016110d890612082565b60405180910390fd5b6110ea8161136d565b50565b6000816110f8611154565b11158015611107575060015482105b8015611145575060007c0100000000000000000000000000000000000000000000000000000000600560008581526020019081526020016000205416145b9050919050565b600033905090565b600090565b60008082905080611168611154565b116111ee576001548110156111ed5760006005600083815260200190815260200160002054905060007c01000000000000000000000000000000000000000000000000000000008216036111eb575b600081036111e15760056000836001900393508381526020019081526020016000205490506111b7565b8092505050611220565b505b5b6040517fdf2d9b4200000000000000000000000000000000000000000000000000000000815260040160405180910390fd5b919050565b60008060006007600085815260200190815260200160002090508092508254915050915091565b600073ffffffffffffffffffffffffffffffffffffffff8316925073ffffffffffffffffffffffffffffffffffffffff821691508382148383141790509392505050565b50505050565b60008060e883901c905060e86112ad8686846116f2565b62ffffff16901b9150509392505050565b600073ffffffffffffffffffffffffffffffffffffffff83169250814260a01b178317905092915050565b50505050565b6112f76116fb565b73ffffffffffffffffffffffffffffffffffffffff16611315610cac565b73ffffffffffffffffffffffffffffffffffffffff161461136b576040517f08c379a0000000000000000000000000000000000000000000000000000000008152600401611362906120ee565b60405180910390fd5b565b60008060009054906101000a900473ffffffffffffffffffffffffffffffffffffffff169050816000806101000a81548173ffffffffffffffffffffffffffffffffffffffff021916908373ffffffffffffffffffffffffffffffffffffffff1602179055508173ffffffffffffffffffffffffffffffffffffffff168173ffffffffffffffffffffffffffffffffffffffff167f8be0079c531659141344cd1fd0a4f28419497f9722a3daafe3b4186f6b6457e060405160405180910390a35050565b60003390506014600036905010158015611450575061144f81610b76565b5b1561146457601436033560601c905061149f565b6040517f08c379a00000000000000000000000000000000000000000000000000000000081526004016114969061215a565b60405180910390fd5b90565b6114bc828260405180602001604052806000815250611703565b5050565b60008373ffffffffffffffffffffffffffffffffffffffff1663150b7a026114e661114c565b8786866040518563ffffffff1660e01b815260040161150894939291906121cf565b6020604051808303816000875af192505050801561154457506040513d601f19601f820116820180604052508101906115419190612230565b60015b6115bd573d8060008114611574576040519150601f19603f3d011682016040523d82523d6000602084013e611579565b606091505b5060008151036115b5576040517fd1a57ed600000000000000000000000000000000000000000000000000000000815260040160405180910390fd5b805181602001fd5b63150b7a0260e01b7bffffffffffffffffffffffffffffffffffffffffffffffffffffffff1916817bffffffffffffffffffffffffffffffffffffffffffffffffffffffff191614915050949350505050565b60606009805461161f90611f56565b80601f016020809104026020016040519081016040528092919081815260200182805461164b90611f56565b80156116985780601f1061166d57610100808354040283529160200191611698565b820191906000526020600020905b81548152906001019060200180831161167b57829003601f168201915b5050505050905090565b606060a060405101806040526020810391506000825281835b6001156116dd57600184039350600a81066030018453600a81049050806116bb575b50828103602084039350808452505050919050565b60009392505050565b600033905090565b61170d83836117a1565b60008373ffffffffffffffffffffffffffffffffffffffff163b1461179c5760006001549050600083820390505b61174e60008683806001019450866114c0565b611784576040517fd1a57ed600000000000000000000000000000000000000000000000000000000815260040160405180910390fd5b81811061173b57816001541461179957600080fd5b50505b505050565b60006001549050600082036117e2576040517fb562e8dd00000000000000000000000000000000000000000000000000000000815260040160405180910390fd5b6117ef6000848385611290565b600160406001901b178202600660008573ffffffffffffffffffffffffffffffffffffffff1673ffffffffffffffffffffffffffffffffffffffff16815260200190815260200160002060008282540192505081905550611866836118576000866000611296565b6118608561195d565b176112be565b6005600083815260200190815260200160002081905550600080838301905073ffffffffffffffffffffffffffffffffffffffff85169150828260007fddf252ad1be2c89b69c2b068fc378daa952ba7f163c4a11628f55a4df523b3ef600080a4600183015b81811461190757808360007fddf252ad1be2c89b69c2b068fc378daa952ba7f163c4a11628f55a4df523b3ef600080a46001810190506118cc565b5060008203611942576040517f2e07630000000000000000000000000000000000000000000000000000000000815260040160405180910390fd5b80600181905550505061195860008483856112e9565b505050565b60006001821460e11b9050919050565b6000604051905090565b600080fd5b600080fd5b60007fffffffff0000000000000000000000000000000000000000000000000000000082169050919050565b6119b681611981565b81146119c157600080fd5b50565b6000813590506119d3816119ad565b92915050565b6000602082840312156119ef576119ee611977565b5b60006119fd848285016119c4565b91505092915050565b60008115159050919050565b611a1b81611a06565b82525050565b6000602082019050611a366000830184611a12565b92915050565b600081519050919050565b600082825260208201905092915050565b60005b83811015611a76578082015181840152602081019050611a5b565b60008484015250505050565b6000601f19601f8301169050919050565b6000611a9e82611a3c565b611aa88185611a47565b9350611ab8818560208601611a58565b611ac181611a82565b840191505092915050565b60006020820190508181036000830152611ae68184611a93565b905092915050565b6000819050919050565b611b0181611aee565b8114611b0c57600080fd5b50565b600081359050611b1e81611af8565b92915050565b600060208284031215611b3a57611b39611977565b5b6000611b4884828501611b0f565b91505092915050565b600073ffffffffffffffffffffffffffffffffffffffff82169050919050565b6000611b7c82611b51565b9050919050565b611b8c81611b71565b82525050565b6000602082019050611ba76000830184611b83565b92915050565b611bb681611b71565b8114611bc157600080fd5b50565b600081359050611bd381611bad565b92915050565b60008060408385031215611bf057611bef611977565b5b6000611bfe85828601611bc4565b9250506020611c0f85828601611b0f565b9150509250929050565b611c2281611aee565b82525050565b6000602082019050611c3d6000830184611c19565b92915050565b600080600060608486031215611c5c57611c5b611977565b5b6000611c6a86828701611bc4565b9350506020611c7b86828701611bc4565b9250506040611c8c86828701611b0f565b9150509250925092565b600060208284031215611cac57611cab611977565b5b6000611cba84828501611bc4565b91505092915050565b611ccc81611a06565b8114611cd757600080fd5b50565b600081359050611ce981611cc3565b92915050565b60008060408385031215611d0657611d05611977565b5b6000611d1485828601611bc4565b9250506020611d2585828601611cda565b9150509250929050565b600080fd5b600080fd5b7f4e487b7100000000000000000000000000000000000000000000000000000000600052604160045260246000fd5b611d7182611a82565b810181811067ffffffffffffffff82111715611d9057611d8f611d39565b5b80604052505050565b6000611da361196d565b9050611daf8282611d68565b919050565b600067ffffffffffffffff821115611dcf57611dce611d39565b5b611dd882611a82565b9050602081019050919050565b82818337600083830152505050565b6000611e07611e0284611db4565b611d99565b905082815260208101848484011115611e2357611e22611d34565b5b611e2e848285611de5565b509392505050565b600082601f830112611e4b57611e4a611d2f565b5b8135611e5b848260208601611df4565b91505092915050565b60008060008060808587031215611e7e57611e7d611977565b5b6000611e8c87828801611bc4565b9450506020611e9d87828801611bc4565b9350506040611eae87828801611b0f565b925050606085013567ffffffffffffffff811115611ecf57611ece61197c565b5b611edb87828801611e36565b91505092959194509250565b60008060408385031215611efe57611efd611977565b5b6000611f0c85828601611bc4565b9250506020611f1d85828601611bc4565b9150509250929050565b7f4e487b7100000000000000000000000000000000000000000000000000000000600052602260045260246000fd5b60006002820490506001821680611f6e57607f821691505b602082108103611f8157611f80611f27565b5b50919050565b6000604082019050611f9c6000830185611b83565b611fa96020830184611c19565b9392505050565b600081905092915050565b6000611fc682611a3c565b611fd08185611fb0565b9350611fe0818560208601611a58565b80840191505092915050565b6000611ff88285611fbb565b91506120048284611fbb565b91508190509392505050565b7f4f776e61626c653a206e6577206f776e657220697320746865207a65726f206160008201527f6464726573730000000000000000000000000000000000000000000000000000602082015250565b600061206c602683611a47565b915061207782612010565b604082019050919050565b6000602082019050818103600083015261209b8161205f565b9050919050565b7f4f776e61626c653a2063616c6c6572206973206e6f7420746865206f776e6572600082015250565b60006120d8602083611a47565b91506120e3826120a2565b602082019050919050565b60006020820190508181036000830152612107816120cb565b9050919050565b7f696e76616c69642063616c6c0000000000000000000000000000000000000000600082015250565b6000612144600c83611a47565b915061214f8261210e565b602082019050919050565b6000602082019050818103600083015261217381612137565b9050919050565b600081519050919050565b600082825260208201905092915050565b60006121a18261217a565b6121ab8185612185565b93506121bb818560208601611a58565b6121c481611a82565b840191505092915050565b60006080820190506121e46000830187611b83565b6121f16020830186611b83565b6121fe6040830185611c19565b81810360608301526122108184612196565b905095945050505050565b60008151905061222a816119ad565b92915050565b60006020828403121561224657612245611977565b5b60006122548482850161221b565b9150509291505056fea26469706673582212204e2a38b63c018e28400ce783ddd5051054d4b79ec0877f91c1cfb9816931d98464736f6c63430008110033",
  "linkReferences": {},
  "deployedLinkReferences": {}
}